{
  "contractName": "Roulette",
  "abi": [
    {
      "constant": true,
      "inputs": [
        {
          "name": "",
          "type": "uint256"
        }
      ],
      "name": "userNames",
      "outputs": [
        {
          "name": "",
          "type": "string"
        }
      ],
      "payable": false,
      "stateMutability": "view",
      "type": "function",
      "signature": "0x4ebd3aea"
    },
    {
      "constant": true,
      "inputs": [],
      "name": "deployTime",
      "outputs": [
        {
          "name": "",
          "type": "uint256"
        }
      ],
      "payable": false,
      "stateMutability": "view",
      "type": "function",
      "signature": "0x7a40624b"
    },
    {
      "constant": true,
      "inputs": [],
      "name": "ownerAddr",
      "outputs": [
        {
          "name": "",
          "type": "address"
        }
      ],
      "payable": false,
      "stateMutability": "view",
      "type": "function",
      "signature": "0x9c675eaa"
    },
    {
      "constant": true,
      "inputs": [
        {
          "name": "",
          "type": "address"
        }
      ],
      "name": "makeRandomNumberTimes",
      "outputs": [
        {
          "name": "",
          "type": "uint256"
        }
      ],
      "payable": false,
      "stateMutability": "view",
      "type": "function",
      "signature": "0xbf6cb85a"
    },
    {
      "constant": true,
      "inputs": [],
      "name": "winner",
      "outputs": [
        {
          "name": "",
          "type": "uint256"
        }
      ],
      "payable": false,
      "stateMutability": "view",
      "type": "function",
      "signature": "0xdfbf53ae"
    },
    {
      "constant": false,
      "inputs": [
        {
          "name": "_newOwner",
          "type": "address"
        }
      ],
      "name": "transferOwnership",
      "outputs": [],
      "payable": false,
      "stateMutability": "nonpayable",
      "type": "function",
      "signature": "0xf2fde38b"
    },
    {
      "constant": true,
      "inputs": [],
      "name": "test",
      "outputs": [
        {
          "name": "",
          "type": "uint256"
        }
      ],
      "payable": false,
      "stateMutability": "view",
      "type": "function",
      "signature": "0xf8a8fd6d"
    },
    {
      "inputs": [],
      "payable": false,
      "stateMutability": "nonpayable",
      "type": "constructor",
      "signature": "constructor"
    },
    {
      "constant": false,
      "inputs": [
        {
          "name": "_users",
          "type": "string[]"
        }
      ],
      "name": "setUserName",
      "outputs": [
        {
          "name": "",
          "type": "string[]"
        }
      ],
      "payable": false,
      "stateMutability": "nonpayable",
      "type": "function",
      "signature": "0xdb2063e2"
    },
    {
      "constant": true,
      "inputs": [],
      "name": "getTest",
      "outputs": [
        {
          "name": "",
          "type": "uint256"
        }
      ],
      "payable": false,
      "stateMutability": "view",
      "type": "function",
      "signature": "0xa8cd0a80"
    },
    {
      "constant": false,
      "inputs": [
        {
          "name": "_value",
          "type": "uint256"
        }
      ],
      "name": "setTest",
      "outputs": [],
      "payable": false,
      "stateMutability": "nonpayable",
      "type": "function",
      "signature": "0x6ca1f933"
    },
    {
      "constant": false,
      "inputs": [],
      "name": "getUserNames",
      "outputs": [
        {
          "name": "",
          "type": "string[]"
        }
      ],
      "payable": false,
      "stateMutability": "nonpayable",
      "type": "function",
      "signature": "0x7810cf2b"
    },
    {
      "constant": false,
      "inputs": [],
      "name": "generateRandomNumber",
      "outputs": [
        {
          "name": "",
          "type": "uint256"
        }
      ],
      "payable": false,
      "stateMutability": "nonpayable",
      "type": "function",
      "signature": "0x773a1154"
    },
    {
      "constant": false,
      "inputs": [
        {
          "name": "_address",
          "type": "address"
        }
      ],
      "name": "getCount",
      "outputs": [
        {
          "name": "",
          "type": "uint256"
        }
      ],
      "payable": false,
      "stateMutability": "nonpayable",
      "type": "function",
      "signature": "0x4f0cd27b"
    },
    {
      "constant": true,
      "inputs": [],
      "name": "viewResult",
      "outputs": [
        {
          "name": "",
          "type": "string"
        }
      ],
      "payable": false,
      "stateMutability": "view",
      "type": "function",
      "signature": "0x3cff0380"
    },
    {
      "constant": true,
      "inputs": [],
      "name": "viewUsers",
      "outputs": [
        {
          "name": "",
          "type": "uint256"
        }
      ],
      "payable": false,
      "stateMutability": "view",
      "type": "function",
      "signature": "0x14ebdb79"
    },
    {
      "constant": true,
      "inputs": [],
      "name": "getWinner",
      "outputs": [
        {
          "name": "",
          "type": "uint256"
        }
      ],
      "payable": false,
      "stateMutability": "view",
      "type": "function",
      "signature": "0x8e7ea5b2"
    }
  ],
  "bytecode": "0x60806040526000600155600a60045534801561001a57600080fd5b50336000806101000a81548173ffffffffffffffffffffffffffffffffffffffff021916908373ffffffffffffffffffffffffffffffffffffffff160217905550336000806101000a81548173ffffffffffffffffffffffffffffffffffffffff021916908373ffffffffffffffffffffffffffffffffffffffff16021790555060018060008282540192505081905550610f82806100ba6000396000f3fe6080604052600436106100e6576000357c0100000000000000000000000000000000000000000000000000000000900463ffffffff16806314ebdb79146100eb5780633cff0380146101165780634ebd3aea146101415780634f0cd27b1461017e5780636ca1f933146101bb578063773a1154146101e45780637810cf2b1461020f5780637a40624b1461023a5780638e7ea5b2146102655780639c675eaa14610290578063a8cd0a80146102bb578063bf6cb85a146102e6578063db2063e214610323578063dfbf53ae14610360578063f2fde38b1461038b578063f8a8fd6d146103b4575b600080fd5b3480156100f757600080fd5b506101006103df565b60405161010d9190610dc6565b60405180910390f35b34801561012257600080fd5b5061012b6103ec565b6040516101389190610da4565b60405180910390f35b34801561014d57600080fd5b5061016860048036036101639190810190610c24565b6104a7565b6040516101759190610d82565b60405180910390f35b34801561018a57600080fd5b506101a560048036036101a09190810190610bba565b610562565b6040516101b29190610dc6565b60405180910390f35b3480156101c757600080fd5b506101e260048036036101dd9190810190610c24565b6105ab565b005b3480156101f057600080fd5b506101f96105b5565b6040516102069190610dc6565b60405180910390f35b34801561021b57600080fd5b50610224610642565b6040516102319190610d60565b60405180910390f35b34801561024657600080fd5b5061024f61072b565b60405161025c9190610dc6565b60405180910390f35b34801561027157600080fd5b5061027a610731565b6040516102879190610dc6565b60405180910390f35b34801561029c57600080fd5b506102a561073b565b6040516102b29190610d45565b60405180910390f35b3480156102c757600080fd5b506102d0610760565b6040516102dd9190610dc6565b60405180910390f35b3480156102f257600080fd5b5061030d60048036036103089190810190610bba565b61076a565b60405161031a9190610dc6565b60405180910390f35b34801561032f57600080fd5b5061034a60048036036103459190810190610be3565b610782565b6040516103579190610d60565b60405180910390f35b34801561036c57600080fd5b506103756108e0565b6040516103829190610dc6565b60405180910390f35b34801561039757600080fd5b506103b260048036036103ad9190810190610bba565b6108e6565b005b3480156103c057600080fd5b506103c9610a1b565b6040516103d69190610dc6565b60405180910390f35b6000600280549050905090565b606060026003548154811015156103ff57fe5b906000526020600020018054600181600116156101000203166002900480601f01602080910402602001604051908101604052809291908181526020018280546001816001161561010002031660029004801561049d5780601f106104725761010080835404028352916020019161049d565b820191906000526020600020905b81548152906001019060200180831161048057829003601f168201915b5050505050905090565b6002818154811015156104b657fe5b906000526020600020016000915090508054600181600116156101000203166002900480601f01602080910402602001604051908101604052809291908181526020018280546001816001161561010002031660029004801561055a5780601f1061052f5761010080835404028352916020019161055a565b820191906000526020600020905b81548152906001019060200180831161053d57829003601f168201915b505050505081565b6000600560003373ffffffffffffffffffffffffffffffffffffffff1673ffffffffffffffffffffffffffffffffffffffff168152602001908152602001600020549050919050565b8060048190555050565b6000600560003373ffffffffffffffffffffffffffffffffffffffff1673ffffffffffffffffffffffffffffffffffffffff1681526020019081526020016000206000815480929190600101919050555060006002805490509050600060014303409050600060018301826001900481151561062d57fe5b06905080600381905550600354935050505090565b60606002805480602002602001604051908101604052809291908181526020016000905b82821015610722578382906000526020600020018054600181600116156101000203166002900480601f01602080910402602001604051908101604052809291908181526020018280546001816001161561010002031660029004801561070e5780601f106106e35761010080835404028352916020019161070e565b820191906000526020600020905b8154815290600101906020018083116106f157829003601f168201915b505050505081526020019060010190610666565b50505050905090565b60015481565b6000600354905090565b6000809054906101000a900473ffffffffffffffffffffffffffffffffffffffff1681565b6000600454905090565b60056020528060005260406000206000915090505481565b606060008090505b82518110156107f657600283828151811015156107a357fe5b9060200190602002015190806001815401808255809150509060018203906000526020600020016000909192909190915090805190602001906107e7929190610a21565b5050808060010191505061078a565b506002805480602002602001604051908101604052809291908181526020016000905b828210156108d5578382906000526020600020018054600181600116156101000203166002900480601f0160208091040260200160405190810160405280929190818152602001828054600181600116156101000203166002900480156108c15780601f10610896576101008083540402835291602001916108c1565b820191906000526020600020905b8154815290600101906020018083116108a457829003601f168201915b505050505081526020019060010190610819565b505050509050919050565b60035481565b6000809054906101000a900473ffffffffffffffffffffffffffffffffffffffff1673ffffffffffffffffffffffffffffffffffffffff163373ffffffffffffffffffffffffffffffffffffffff1614151561094157600080fd5b6000809054906101000a900473ffffffffffffffffffffffffffffffffffffffff1673ffffffffffffffffffffffffffffffffffffffff163373ffffffffffffffffffffffffffffffffffffffff1614151561099c57600080fd5b600073ffffffffffffffffffffffffffffffffffffffff168173ffffffffffffffffffffffffffffffffffffffff16141515156109d857600080fd5b806000806101000a81548173ffffffffffffffffffffffffffffffffffffffff021916908373ffffffffffffffffffffffffffffffffffffffff16021790555050565b60045481565b828054600181600116156101000203166002900490600052602060002090601f016020900481019282601f10610a6257805160ff1916838001178555610a90565b82800160010185558215610a90579182015b82811115610a8f578251825591602001919060010190610a74565b5b509050610a9d9190610aa1565b5090565b610ac391905b80821115610abf576000816000905550600101610aa7565b5090565b90565b6000610ad28235610ed9565b905092915050565b600082601f8301121515610aed57600080fd5b8135610b00610afb82610e0e565b610de1565b9150818183526020840193506020810190508360005b83811015610b465781358601610b2c8882610b50565b845260208401935060208301925050600181019050610b16565b5050505092915050565b600082601f8301121515610b6357600080fd5b8135610b76610b7182610e36565b610de1565b91508082526020830160208301858383011115610b9257600080fd5b610b9d838284610ef5565b50505092915050565b6000610bb28235610eeb565b905092915050565b600060208284031215610bcc57600080fd5b6000610bda84828501610ac6565b91505092915050565b600060208284031215610bf557600080fd5b600082013567ffffffffffffffff811115610c0f57600080fd5b610c1b84828501610ada565b91505092915050565b600060208284031215610c3657600080fd5b6000610c4484828501610ba6565b91505092915050565b610c5681610e9d565b82525050565b6000610c6782610e6f565b80845260208401935083602082028501610c8085610e62565b60005b84811015610cb9578383038852610c9b838351610d00565b9250610ca682610e90565b9150602088019750600181019050610c83565b508196508694505050505092915050565b6000610cd582610e85565b808452610ce9816020860160208601610f04565b610cf281610f37565b602085010191505092915050565b6000610d0b82610e7a565b808452610d1f816020860160208601610f04565b610d2881610f37565b602085010191505092915050565b610d3f81610ecf565b82525050565b6000602082019050610d5a6000830184610c4d565b92915050565b60006020820190508181036000830152610d7a8184610c5c565b905092915050565b60006020820190508181036000830152610d9c8184610d00565b905092915050565b60006020820190508181036000830152610dbe8184610cca565b905092915050565b6000602082019050610ddb6000830184610d36565b92915050565b6000604051905081810181811067ffffffffffffffff82111715610e0457600080fd5b8060405250919050565b600067ffffffffffffffff821115610e2557600080fd5b602082029050602081019050919050565b600067ffffffffffffffff821115610e4d57600080fd5b601f19601f8301169050602081019050919050565b6000602082019050919050565b600081519050919050565b600081519050919050565b600081519050919050565b6000602082019050919050565b6000610ea882610eaf565b9050919050565b600073ffffffffffffffffffffffffffffffffffffffff82169050919050565b6000819050919050565b6000610ee482610eaf565b9050919050565b6000819050919050565b82818337600083830152505050565b60005b83811015610f22578082015181840152602081019050610f07565b83811115610f31576000848401525b50505050565b6000601f19601f830116905091905056fea265627a7a72305820edb65e00fba14ec365e63bce0c947c5b21c133d90c36e836cf05766acb78a86d6c6578706572696d656e74616cf50037",
  "source": "pragma solidity >0.4.99 <0.6.0;\npragma experimental ABIEncoderV2;\nimport \"./Owned.sol\";\n\ncontract Roulette is Owned{\n\n    // owner can deploy contract at once;\n    uint public deployTime = 0;\n\n    constructor() public{\n        ownerAddr = msg.sender;\n        deployTime += 1;\n    }\n\n    modifier onlyOnce{\n        require(deployTime == 0);\n        _;\n    }\n\n    // candidates\n    string[] public userNames;\n\n    // roulette winner\n    uint public winner ;\n\n    uint public test = 10;\n\n    mapping(address => uint ) public makeRandomNumberTimes;\n\n    function setUserName(string[] memory _users) public returns(string[] memory){\n        for(uint i=0;i<_users.length;i++){\n            userNames.push(_users[i]);\n        }\n        return userNames;\n    }\n\n    function getTest() public view returns(uint){\n        return test;\n    }\n\n    function setTest(uint  _value) public  {\n        test = _value;\n    }\n\n    function getUserNames() public returns(string[] memory){\n        return userNames;\n    }\n\n    // NOTE : this function uses blockhash and it is NOT secure !\n    function generateRandomNumber() public returns(uint){\n        //TODO:テストのためにrequireをコメントアウトしているので戻す事\n        // require(makeRandomNumberTimes[msg.sender] == 0,\"you already make random number\");\n        makeRandomNumberTimes[msg.sender]++;\n\n        uint userNumber = userNames.length;\n        bytes32 blockhash = blockhash(block.number - 1);\n        uint myWinner = uint(blockhash) % (userNumber+1);\n        winner = myWinner;\n        return winner;\n    }\n\n    function getCount(address _address) public returns(uint){\n        return makeRandomNumberTimes[msg.sender];\n    }\n\n    // return wineer name\n    function viewResult() public view returns(string memory){\n        return userNames[winner];\n    }\n\n    function viewUsers() public view returns(uint){\n        return userNames.length;\n    }\n\n    function getWinner() public view returns(uint){\n        return winner;\n    }\n}",
  "sourcePath": "/Users/andy/roulethereum/contracts/Roulette.sol",
  "compiler": {
    "name": "solc",
    "version": "0.5.0+commit.1d4f565a.Emscripten.clang"
  },
  "schemaVersion": "3.0.0",
  "updatedAt": "2019-02-28T08:04:18.573Z",
  "devdoc": {
    "methods": {}
  },
  "userdoc": {
    "methods": {}
  }
}