{
  "contractName": "Roulette",
  "abi": [
    {
      "constant": true,
      "inputs": [
        {
          "name": "",
          "type": "uint256"
        }
      ],
      "name": "userNames",
      "outputs": [
        {
          "name": "",
          "type": "string"
        }
      ],
      "payable": false,
      "stateMutability": "view",
      "type": "function",
      "signature": "0x4ebd3aea"
    },
    {
      "constant": true,
      "inputs": [],
      "name": "deployTime",
      "outputs": [
        {
          "name": "",
          "type": "uint256"
        }
      ],
      "payable": false,
      "stateMutability": "view",
      "type": "function",
      "signature": "0x7a40624b"
    },
    {
      "constant": true,
      "inputs": [],
      "name": "ownerAddr",
      "outputs": [
        {
          "name": "",
          "type": "address"
        }
      ],
      "payable": false,
      "stateMutability": "view",
      "type": "function",
      "signature": "0x9c675eaa"
    },
    {
      "constant": true,
      "inputs": [
        {
          "name": "",
          "type": "address"
        }
      ],
      "name": "makeRandomNumberTimes",
      "outputs": [
        {
          "name": "",
          "type": "uint256"
        }
      ],
      "payable": false,
      "stateMutability": "view",
      "type": "function",
      "signature": "0xbf6cb85a"
    },
    {
      "constant": true,
      "inputs": [],
      "name": "winner",
      "outputs": [
        {
          "name": "",
          "type": "uint256"
        }
      ],
      "payable": false,
      "stateMutability": "view",
      "type": "function",
      "signature": "0xdfbf53ae"
    },
    {
      "constant": false,
      "inputs": [
        {
          "name": "_newOwner",
          "type": "address"
        }
      ],
      "name": "transferOwnership",
      "outputs": [],
      "payable": false,
      "stateMutability": "nonpayable",
      "type": "function",
      "signature": "0xf2fde38b"
    },
    {
      "constant": true,
      "inputs": [],
      "name": "test",
      "outputs": [
        {
          "name": "",
          "type": "uint256"
        }
      ],
      "payable": false,
      "stateMutability": "view",
      "type": "function",
      "signature": "0xf8a8fd6d"
    },
    {
      "inputs": [],
      "payable": false,
      "stateMutability": "nonpayable",
      "type": "constructor",
      "signature": "constructor"
    },
    {
      "constant": false,
      "inputs": [
        {
          "name": "_users",
          "type": "string[]"
        }
      ],
      "name": "setUserName",
      "outputs": [
        {
          "name": "",
          "type": "string[]"
        }
      ],
      "payable": false,
      "stateMutability": "nonpayable",
      "type": "function",
      "signature": "0xdb2063e2"
    },
    {
      "constant": true,
      "inputs": [],
      "name": "getTest",
      "outputs": [
        {
          "name": "",
          "type": "uint256"
        }
      ],
      "payable": false,
      "stateMutability": "view",
      "type": "function",
      "signature": "0xa8cd0a80"
    },
    {
      "constant": false,
      "inputs": [
        {
          "name": "_value",
          "type": "uint256"
        }
      ],
      "name": "setTest",
      "outputs": [],
      "payable": false,
      "stateMutability": "nonpayable",
      "type": "function",
      "signature": "0x6ca1f933"
    },
    {
      "constant": false,
      "inputs": [],
      "name": "getUserNames",
      "outputs": [
        {
          "name": "",
          "type": "string[]"
        }
      ],
      "payable": false,
      "stateMutability": "nonpayable",
      "type": "function",
      "signature": "0x7810cf2b"
    },
    {
      "constant": false,
      "inputs": [],
      "name": "generateRandomNumber",
      "outputs": [
        {
          "name": "",
          "type": "uint256"
        }
      ],
      "payable": false,
      "stateMutability": "nonpayable",
      "type": "function",
      "signature": "0x773a1154"
    },
    {
      "constant": true,
      "inputs": [],
      "name": "viewResult",
      "outputs": [
        {
          "name": "",
          "type": "string"
        }
      ],
      "payable": false,
      "stateMutability": "view",
      "type": "function",
      "signature": "0x3cff0380"
    },
    {
      "constant": true,
      "inputs": [],
      "name": "viewUsers",
      "outputs": [
        {
          "name": "",
          "type": "uint256"
        }
      ],
      "payable": false,
      "stateMutability": "view",
      "type": "function",
      "signature": "0x14ebdb79"
    },
    {
      "constant": true,
      "inputs": [],
      "name": "getWinner",
      "outputs": [
        {
          "name": "",
          "type": "uint256"
        }
      ],
      "payable": false,
      "stateMutability": "view",
      "type": "function",
      "signature": "0x8e7ea5b2"
    }
  ],
  "bytecode": "0x60806040526000600155600a60045534801561001a57600080fd5b50336000806101000a81548173ffffffffffffffffffffffffffffffffffffffff021916908373ffffffffffffffffffffffffffffffffffffffff160217905550336000806101000a81548173ffffffffffffffffffffffffffffffffffffffff021916908373ffffffffffffffffffffffffffffffffffffffff16021790555060018060008282540192505081905550610ef1806100ba6000396000f3fe6080604052600436106100db576000357c0100000000000000000000000000000000000000000000000000000000900463ffffffff16806314ebdb79146100e05780633cff03801461010b5780634ebd3aea146101365780636ca1f93314610173578063773a11541461019c5780637810cf2b146101c75780637a40624b146101f25780638e7ea5b21461021d5780639c675eaa14610248578063a8cd0a8014610273578063bf6cb85a1461029e578063db2063e2146102db578063dfbf53ae14610318578063f2fde38b14610343578063f8a8fd6d1461036c575b600080fd5b3480156100ec57600080fd5b506100f5610397565b6040516101029190610d35565b60405180910390f35b34801561011757600080fd5b506101206103a4565b60405161012d9190610d13565b60405180910390f35b34801561014257600080fd5b5061015d60048036036101589190810190610b93565b61045f565b60405161016a9190610cf1565b60405180910390f35b34801561017f57600080fd5b5061019a60048036036101959190810190610b93565b61051a565b005b3480156101a857600080fd5b506101b1610524565b6040516101be9190610d35565b60405180910390f35b3480156101d357600080fd5b506101dc6105b1565b6040516101e99190610ccf565b60405180910390f35b3480156101fe57600080fd5b5061020761069a565b6040516102149190610d35565b60405180910390f35b34801561022957600080fd5b506102326106a0565b60405161023f9190610d35565b60405180910390f35b34801561025457600080fd5b5061025d6106aa565b60405161026a9190610cb4565b60405180910390f35b34801561027f57600080fd5b506102886106cf565b6040516102959190610d35565b60405180910390f35b3480156102aa57600080fd5b506102c560048036036102c09190810190610b29565b6106d9565b6040516102d29190610d35565b60405180910390f35b3480156102e757600080fd5b5061030260048036036102fd9190810190610b52565b6106f1565b60405161030f9190610ccf565b60405180910390f35b34801561032457600080fd5b5061032d61084f565b60405161033a9190610d35565b60405180910390f35b34801561034f57600080fd5b5061036a60048036036103659190810190610b29565b610855565b005b34801561037857600080fd5b5061038161098a565b60405161038e9190610d35565b60405180910390f35b6000600280549050905090565b606060026003548154811015156103b757fe5b906000526020600020018054600181600116156101000203166002900480601f0160208091040260200160405190810160405280929190818152602001828054600181600116156101000203166002900480156104555780601f1061042a57610100808354040283529160200191610455565b820191906000526020600020905b81548152906001019060200180831161043857829003601f168201915b5050505050905090565b60028181548110151561046e57fe5b906000526020600020016000915090508054600181600116156101000203166002900480601f0160208091040260200160405190810160405280929190818152602001828054600181600116156101000203166002900480156105125780601f106104e757610100808354040283529160200191610512565b820191906000526020600020905b8154815290600101906020018083116104f557829003601f168201915b505050505081565b8060048190555050565b6000600560003373ffffffffffffffffffffffffffffffffffffffff1673ffffffffffffffffffffffffffffffffffffffff1681526020019081526020016000206000815480929190600101919050555060006002805490509050600060014303409050600060018301826001900481151561059c57fe5b06905080600381905550600354935050505090565b60606002805480602002602001604051908101604052809291908181526020016000905b82821015610691578382906000526020600020018054600181600116156101000203166002900480601f01602080910402602001604051908101604052809291908181526020018280546001816001161561010002031660029004801561067d5780601f106106525761010080835404028352916020019161067d565b820191906000526020600020905b81548152906001019060200180831161066057829003601f168201915b5050505050815260200190600101906105d5565b50505050905090565b60015481565b6000600354905090565b6000809054906101000a900473ffffffffffffffffffffffffffffffffffffffff1681565b6000600454905090565b60056020528060005260406000206000915090505481565b606060008090505b8251811015610765576002838281518110151561071257fe5b906020019060200201519080600181540180825580915050906001820390600052602060002001600090919290919091509080519060200190610756929190610990565b505080806001019150506106f9565b506002805480602002602001604051908101604052809291908181526020016000905b82821015610844578382906000526020600020018054600181600116156101000203166002900480601f0160208091040260200160405190810160405280929190818152602001828054600181600116156101000203166002900480156108305780601f1061080557610100808354040283529160200191610830565b820191906000526020600020905b81548152906001019060200180831161081357829003601f168201915b505050505081526020019060010190610788565b505050509050919050565b60035481565b6000809054906101000a900473ffffffffffffffffffffffffffffffffffffffff1673ffffffffffffffffffffffffffffffffffffffff163373ffffffffffffffffffffffffffffffffffffffff161415156108b057600080fd5b6000809054906101000a900473ffffffffffffffffffffffffffffffffffffffff1673ffffffffffffffffffffffffffffffffffffffff163373ffffffffffffffffffffffffffffffffffffffff1614151561090b57600080fd5b600073ffffffffffffffffffffffffffffffffffffffff168173ffffffffffffffffffffffffffffffffffffffff161415151561094757600080fd5b806000806101000a81548173ffffffffffffffffffffffffffffffffffffffff021916908373ffffffffffffffffffffffffffffffffffffffff16021790555050565b60045481565b828054600181600116156101000203166002900490600052602060002090601f016020900481019282601f106109d157805160ff19168380011785556109ff565b828001600101855582156109ff579182015b828111156109fe5782518255916020019190600101906109e3565b5b509050610a0c9190610a10565b5090565b610a3291905b80821115610a2e576000816000905550600101610a16565b5090565b90565b6000610a418235610e48565b905092915050565b600082601f8301121515610a5c57600080fd5b8135610a6f610a6a82610d7d565b610d50565b9150818183526020840193506020810190508360005b83811015610ab55781358601610a9b8882610abf565b845260208401935060208301925050600181019050610a85565b5050505092915050565b600082601f8301121515610ad257600080fd5b8135610ae5610ae082610da5565b610d50565b91508082526020830160208301858383011115610b0157600080fd5b610b0c838284610e64565b50505092915050565b6000610b218235610e5a565b905092915050565b600060208284031215610b3b57600080fd5b6000610b4984828501610a35565b91505092915050565b600060208284031215610b6457600080fd5b600082013567ffffffffffffffff811115610b7e57600080fd5b610b8a84828501610a49565b91505092915050565b600060208284031215610ba557600080fd5b6000610bb384828501610b15565b91505092915050565b610bc581610e0c565b82525050565b6000610bd682610dde565b80845260208401935083602082028501610bef85610dd1565b60005b84811015610c28578383038852610c0a838351610c6f565b9250610c1582610dff565b9150602088019750600181019050610bf2565b508196508694505050505092915050565b6000610c4482610df4565b808452610c58816020860160208601610e73565b610c6181610ea6565b602085010191505092915050565b6000610c7a82610de9565b808452610c8e816020860160208601610e73565b610c9781610ea6565b602085010191505092915050565b610cae81610e3e565b82525050565b6000602082019050610cc96000830184610bbc565b92915050565b60006020820190508181036000830152610ce98184610bcb565b905092915050565b60006020820190508181036000830152610d0b8184610c6f565b905092915050565b60006020820190508181036000830152610d2d8184610c39565b905092915050565b6000602082019050610d4a6000830184610ca5565b92915050565b6000604051905081810181811067ffffffffffffffff82111715610d7357600080fd5b8060405250919050565b600067ffffffffffffffff821115610d9457600080fd5b602082029050602081019050919050565b600067ffffffffffffffff821115610dbc57600080fd5b601f19601f8301169050602081019050919050565b6000602082019050919050565b600081519050919050565b600081519050919050565b600081519050919050565b6000602082019050919050565b6000610e1782610e1e565b9050919050565b600073ffffffffffffffffffffffffffffffffffffffff82169050919050565b6000819050919050565b6000610e5382610e1e565b9050919050565b6000819050919050565b82818337600083830152505050565b60005b83811015610e91578082015181840152602081019050610e76565b83811115610ea0576000848401525b50505050565b6000601f19601f830116905091905056fea265627a7a72305820daa83382ea4cc87a111ac7c81e8217287cd5e4b3c6874806c5a689411933e72b6c6578706572696d656e74616cf50037",
  "source": "pragma solidity >0.4.99 <0.6.0;\npragma experimental ABIEncoderV2;\nimport \"./Owned.sol\";\n\ncontract Roulette is Owned{\n\n    // owner can deploy contract at once;\n    uint public deployTime = 0;\n\n    constructor() public{\n        ownerAddr = msg.sender;\n        deployTime += 1;\n    }\n\n    modifier onlyOnce{\n        require(deployTime == 0);\n        _;\n    }\n\n    // candidates\n    string[] public userNames;\n\n    // roulette winner\n    uint public winner ;\n\n    uint public test = 10;\n\n    // userAddress => make Randome Number Times\n    // user can make random number only once\n    mapping(address => uint ) public makeRandomNumberTimes;\n\n    // set candidate\n    //TODO:onlyOwnerを消すこと\n    // function setUserName(string memory _userNames) public {\n    //     userNames.push(_userNames);\n    // }\n\n    function setUserName(string[] memory _users) public returns(string[] memory){\n        for(uint i=0;i<_users.length;i++){\n            userNames.push(_users[i]);\n        }\n        return userNames;\n    }\n\n    function getTest() public view returns(uint){\n        return test;\n    }\n\n    function setTest(uint  _value) public  {\n        test = _value;\n    }\n\n    function getUserNames() public returns(string[] memory){\n        return userNames;\n    }\n\n    // NOTE : this function uses blockhash and it is NOT secure !\n    function generateRandomNumber() public returns(uint){\n        //TODO:テストのためにrequireをコメントアウトしているので戻す事\n        // require(makeRandomNumberTimes[msg.sender] == 0,\"you already make random number\");\n        makeRandomNumberTimes[msg.sender]++;\n\n        uint userNumber = userNames.length;\n        bytes32 blockhash = blockhash(block.number - 1);\n        uint myWinner = uint(blockhash) % (userNumber+1);\n        \n        //TODO:配列のあたいの値の入ってない部分がwinnerになるとエラーになる\n        winner = myWinner;\n        return winner;\n    }\n\n    // return wineer name\n    function viewResult() public view returns(string memory){\n        return userNames[winner];\n    }\n\n    function viewUsers() public view returns(uint){\n        return userNames.length;\n    }\n\n    function getWinner() public view returns(uint){\n        return winner;\n    }\n}",
  "sourcePath": "/Users/andy/roulethereum/contracts/Roulette.sol",
  "compiler": {
    "name": "solc",
    "version": "0.5.0+commit.1d4f565a.Emscripten.clang"
  },
  "schemaVersion": "3.0.0",
  "updatedAt": "2019-02-28T02:32:08.252Z",
  "devdoc": {
    "methods": {}
  },
  "userdoc": {
    "methods": {}
  }
}