{
  "contractName": "Roulette",
  "abi": [
    {
      "constant": true,
      "inputs": [
        {
          "name": "",
          "type": "uint256"
        }
      ],
      "name": "userNames",
      "outputs": [
        {
          "name": "",
          "type": "string"
        }
      ],
      "payable": false,
      "stateMutability": "view",
      "type": "function",
      "signature": "0x4ebd3aea"
    },
    {
      "constant": true,
      "inputs": [],
      "name": "deployTime",
      "outputs": [
        {
          "name": "",
          "type": "uint256"
        }
      ],
      "payable": false,
      "stateMutability": "view",
      "type": "function",
      "signature": "0x7a40624b"
    },
    {
      "constant": true,
      "inputs": [],
      "name": "ownerAddr",
      "outputs": [
        {
          "name": "",
          "type": "address"
        }
      ],
      "payable": false,
      "stateMutability": "view",
      "type": "function",
      "signature": "0x9c675eaa"
    },
    {
      "constant": true,
      "inputs": [
        {
          "name": "",
          "type": "address"
        }
      ],
      "name": "makeRandomNumberTimes",
      "outputs": [
        {
          "name": "",
          "type": "uint256"
        }
      ],
      "payable": false,
      "stateMutability": "view",
      "type": "function",
      "signature": "0xbf6cb85a"
    },
    {
      "constant": true,
      "inputs": [],
      "name": "winner",
      "outputs": [
        {
          "name": "",
          "type": "uint256"
        }
      ],
      "payable": false,
      "stateMutability": "view",
      "type": "function",
      "signature": "0xdfbf53ae"
    },
    {
      "constant": false,
      "inputs": [
        {
          "name": "_newOwner",
          "type": "address"
        }
      ],
      "name": "transferOwnership",
      "outputs": [],
      "payable": false,
      "stateMutability": "nonpayable",
      "type": "function",
      "signature": "0xf2fde38b"
    },
    {
      "constant": true,
      "inputs": [],
      "name": "test",
      "outputs": [
        {
          "name": "",
          "type": "uint256"
        }
      ],
      "payable": false,
      "stateMutability": "view",
      "type": "function",
      "signature": "0xf8a8fd6d"
    },
    {
      "inputs": [],
      "payable": false,
      "stateMutability": "nonpayable",
      "type": "constructor",
      "signature": "constructor"
    },
    {
      "constant": false,
      "inputs": [
        {
          "name": "_users",
          "type": "string[]"
        }
      ],
      "name": "setUserName",
      "outputs": [
        {
          "name": "",
          "type": "string[]"
        }
      ],
      "payable": false,
      "stateMutability": "nonpayable",
      "type": "function",
      "signature": "0xdb2063e2"
    },
    {
      "constant": true,
      "inputs": [],
      "name": "getTest",
      "outputs": [
        {
          "name": "",
          "type": "uint256"
        }
      ],
      "payable": false,
      "stateMutability": "view",
      "type": "function",
      "signature": "0xa8cd0a80"
    },
    {
      "constant": false,
      "inputs": [],
      "name": "generateRandomNumber",
      "outputs": [
        {
          "name": "",
          "type": "uint256"
        }
      ],
      "payable": false,
      "stateMutability": "nonpayable",
      "type": "function",
      "signature": "0x773a1154"
    },
    {
      "constant": true,
      "inputs": [],
      "name": "viewResult",
      "outputs": [
        {
          "name": "",
          "type": "string"
        }
      ],
      "payable": false,
      "stateMutability": "view",
      "type": "function",
      "signature": "0x3cff0380"
    },
    {
      "constant": true,
      "inputs": [],
      "name": "viewUsers",
      "outputs": [
        {
          "name": "",
          "type": "uint256"
        }
      ],
      "payable": false,
      "stateMutability": "view",
      "type": "function",
      "signature": "0x14ebdb79"
    }
  ],
  "bytecode": "0x608060405260006001556064600355600a60045534801561001f57600080fd5b50336000806101000a81548173ffffffffffffffffffffffffffffffffffffffff021916908373ffffffffffffffffffffffffffffffffffffffff160217905550336000806101000a81548173ffffffffffffffffffffffffffffffffffffffff021916908373ffffffffffffffffffffffffffffffffffffffff16021790555060018060008282540192505081905550610d54806100bf6000396000f3fe6080604052600436106100ba576000357c0100000000000000000000000000000000000000000000000000000000900463ffffffff16806314ebdb79146100bf5780633cff0380146100ea5780634ebd3aea14610115578063773a1154146101525780637a40624b1461017d5780639c675eaa146101a8578063a8cd0a80146101d3578063bf6cb85a146101fe578063db2063e21461023b578063dfbf53ae14610278578063f2fde38b146102a3578063f8a8fd6d146102cc575b600080fd5b3480156100cb57600080fd5b506100d46102f7565b6040516100e19190610b98565b60405180910390f35b3480156100f657600080fd5b506100ff610304565b60405161010c9190610b76565b60405180910390f35b34801561012157600080fd5b5061013c600480360361013791908101906109f6565b6103bf565b6040516101499190610b54565b60405180910390f35b34801561015e57600080fd5b5061016761047a565b6040516101749190610b98565b60405180910390f35b34801561018957600080fd5b50610192610507565b60405161019f9190610b98565b60405180910390f35b3480156101b457600080fd5b506101bd61050d565b6040516101ca9190610b17565b60405180910390f35b3480156101df57600080fd5b506101e8610532565b6040516101f59190610b98565b60405180910390f35b34801561020a57600080fd5b506102256004803603610220919081019061098c565b61053c565b6040516102329190610b98565b60405180910390f35b34801561024757600080fd5b50610262600480360361025d91908101906109b5565b610554565b60405161026f9190610b32565b60405180910390f35b34801561028457600080fd5b5061028d6106b2565b60405161029a9190610b98565b60405180910390f35b3480156102af57600080fd5b506102ca60048036036102c5919081019061098c565b6106b8565b005b3480156102d857600080fd5b506102e16107ed565b6040516102ee9190610b98565b60405180910390f35b6000600280549050905090565b6060600260035481548110151561031757fe5b906000526020600020018054600181600116156101000203166002900480601f0160208091040260200160405190810160405280929190818152602001828054600181600116156101000203166002900480156103b55780601f1061038a576101008083540402835291602001916103b5565b820191906000526020600020905b81548152906001019060200180831161039857829003601f168201915b5050505050905090565b6002818154811015156103ce57fe5b906000526020600020016000915090508054600181600116156101000203166002900480601f0160208091040260200160405190810160405280929190818152602001828054600181600116156101000203166002900480156104725780601f1061044757610100808354040283529160200191610472565b820191906000526020600020905b81548152906001019060200180831161045557829003601f168201915b505050505081565b6000600560003373ffffffffffffffffffffffffffffffffffffffff1673ffffffffffffffffffffffffffffffffffffffff168152602001908152602001600020600081548092919060010191905055506000600280549050905060006001430340905060006001830182600190048115156104f257fe5b06905080600381905550600354935050505090565b60015481565b6000809054906101000a900473ffffffffffffffffffffffffffffffffffffffff1681565b6000600454905090565b60056020528060005260406000206000915090505481565b606060008090505b82518110156105c8576002838281518110151561057557fe5b9060200190602002015190806001815401808255809150509060018203906000526020600020016000909192909190915090805190602001906105b99291906107f3565b5050808060010191505061055c565b506002805480602002602001604051908101604052809291908181526020016000905b828210156106a7578382906000526020600020018054600181600116156101000203166002900480601f0160208091040260200160405190810160405280929190818152602001828054600181600116156101000203166002900480156106935780601f1061066857610100808354040283529160200191610693565b820191906000526020600020905b81548152906001019060200180831161067657829003601f168201915b5050505050815260200190600101906105eb565b505050509050919050565b60035481565b6000809054906101000a900473ffffffffffffffffffffffffffffffffffffffff1673ffffffffffffffffffffffffffffffffffffffff163373ffffffffffffffffffffffffffffffffffffffff1614151561071357600080fd5b6000809054906101000a900473ffffffffffffffffffffffffffffffffffffffff1673ffffffffffffffffffffffffffffffffffffffff163373ffffffffffffffffffffffffffffffffffffffff1614151561076e57600080fd5b600073ffffffffffffffffffffffffffffffffffffffff168173ffffffffffffffffffffffffffffffffffffffff16141515156107aa57600080fd5b806000806101000a81548173ffffffffffffffffffffffffffffffffffffffff021916908373ffffffffffffffffffffffffffffffffffffffff16021790555050565b60045481565b828054600181600116156101000203166002900490600052602060002090601f016020900481019282601f1061083457805160ff1916838001178555610862565b82800160010185558215610862579182015b82811115610861578251825591602001919060010190610846565b5b50905061086f9190610873565b5090565b61089591905b80821115610891576000816000905550600101610879565b5090565b90565b60006108a48235610cab565b905092915050565b600082601f83011215156108bf57600080fd5b81356108d26108cd82610be0565b610bb3565b9150818183526020840193506020810190508360005b8381101561091857813586016108fe8882610922565b8452602084019350602083019250506001810190506108e8565b5050505092915050565b600082601f830112151561093557600080fd5b813561094861094382610c08565b610bb3565b9150808252602083016020830185838301111561096457600080fd5b61096f838284610cc7565b50505092915050565b60006109848235610cbd565b905092915050565b60006020828403121561099e57600080fd5b60006109ac84828501610898565b91505092915050565b6000602082840312156109c757600080fd5b600082013567ffffffffffffffff8111156109e157600080fd5b6109ed848285016108ac565b91505092915050565b600060208284031215610a0857600080fd5b6000610a1684828501610978565b91505092915050565b610a2881610c6f565b82525050565b6000610a3982610c41565b80845260208401935083602082028501610a5285610c34565b60005b84811015610a8b578383038852610a6d838351610ad2565b9250610a7882610c62565b9150602088019750600181019050610a55565b508196508694505050505092915050565b6000610aa782610c57565b808452610abb816020860160208601610cd6565b610ac481610d09565b602085010191505092915050565b6000610add82610c4c565b808452610af1816020860160208601610cd6565b610afa81610d09565b602085010191505092915050565b610b1181610ca1565b82525050565b6000602082019050610b2c6000830184610a1f565b92915050565b60006020820190508181036000830152610b4c8184610a2e565b905092915050565b60006020820190508181036000830152610b6e8184610ad2565b905092915050565b60006020820190508181036000830152610b908184610a9c565b905092915050565b6000602082019050610bad6000830184610b08565b92915050565b6000604051905081810181811067ffffffffffffffff82111715610bd657600080fd5b8060405250919050565b600067ffffffffffffffff821115610bf757600080fd5b602082029050602081019050919050565b600067ffffffffffffffff821115610c1f57600080fd5b601f19601f8301169050602081019050919050565b6000602082019050919050565b600081519050919050565b600081519050919050565b600081519050919050565b6000602082019050919050565b6000610c7a82610c81565b9050919050565b600073ffffffffffffffffffffffffffffffffffffffff82169050919050565b6000819050919050565b6000610cb682610c81565b9050919050565b6000819050919050565b82818337600083830152505050565b60005b83811015610cf4578082015181840152602081019050610cd9565b83811115610d03576000848401525b50505050565b6000601f19601f830116905091905056fea265627a7a72305820576a1df7298147ddf616d5a9ce775e83ee119a0ee6b62fbaa04bb49df8f29ffb6c6578706572696d656e74616cf50037",
  "source": "pragma solidity >0.4.99 <0.6.0;\npragma experimental ABIEncoderV2;\nimport \"./Owned.sol\";\n\ncontract Roulette is Owned{\n\n    // owner can deploy contract at once;\n    uint public deployTime = 0;\n\n    constructor() public{\n        ownerAddr = msg.sender;\n        deployTime += 1;\n    }\n\n    modifier onlyOnce{\n        require(deployTime == 0);\n        _;\n    }\n\n    // candidates\n    string[] public userNames;\n\n    // roulette winner\n    uint public winner=100;\n\n    uint public test = 10;\n\n    // userAddress => make Randome Number Times\n    // user can make random number only once\n    mapping(address => uint ) public makeRandomNumberTimes;\n\n    // set candidate\n    //TODO:onlyOwnerを消すこと\n    // function setUserName(string memory _userNames) public {\n    //     userNames.push(_userNames);\n    // }\n\n    function setUserName(string[] memory _users) public returns(string[] memory){\n        for(uint i=0;i<_users.length;i++){\n            userNames.push(_users[i]);\n        }\n        return userNames;\n    }\n\n    function getTest() public view returns(uint){\n        return test;\n    }\n\n    // NOTE : this function uses blockhash and it is NOT secure !\n    function generateRandomNumber() public returns(uint){\n        //TODO:テストのためにrequireをコメントアウトしているので戻す事\n        // require(makeRandomNumberTimes[msg.sender] == 0,\"you already make random number\");\n        makeRandomNumberTimes[msg.sender]++;\n\n        uint userNumber = userNames.length;\n        bytes32 blockhash = blockhash(block.number - 1);\n        uint myWinner = uint(blockhash) % (userNumber+1);\n        \n        //TODO:配列のあたいの値の入ってない部分がwinnerになるとエラーになる\n        winner = myWinner;\n        return winner;\n    }\n\n    // return wineer name\n    function viewResult() public view returns(string memory){\n        return userNames[winner];\n    }\n\n    function viewUsers() public view returns(uint){\n        return userNames.length;\n    }\n}",
  "sourcePath": "/Users/andy/roulethereum/contracts/Roulette.sol",
  "compiler": {
    "name": "solc",
    "version": "0.5.0+commit.1d4f565a.Emscripten.clang"
  },
  "schemaVersion": "3.0.0",
  "updatedAt": "2019-02-26T14:16:40.915Z",
  "devdoc": {
    "methods": {}
  },
  "userdoc": {
    "methods": {}
  }
}